:020000040800F2
:10000000188D002029030008A15300089B40000818
:10001000F14F00085F06000835920008000000005C
:10002000000000000000000000000000690200085D
:10003000DF07000800000000C5020008655F000837
:100040004303000843030008430300084303000878
:100050004303000843030008430300084303000868
:100060004303000843030008430300084303000858
:100070004303000843030008430300084303000848
:1000800043030008430300084303000885060008F3
:1000900065060008430300087506000843030008CE
:1000A0004303000843030008430300084303000818
:1000B00045600008596000086960000843030008B3
:1000C00043030008430300084303000843030008F8
:1000D00043030008A169000843030008B169000850
:1000E00043030008430300084303000843030008D8
:1000F0004303000889600008430300084303000825
:1001000043030008430300084303000843030008B7
:100110001965000829650008796000084303000894
:100120004303000843030008430300084303000897
:10013000430300084303000843030008B506000812
:100140009506000843030008A5060008A55300080B
:10015000430300084303000843030008C169000883
:100160004303000843030008430300084303000857
:100170004303000843030008430300080000000095
:10018000430300084303000800F002F800F05CF8A5
:100190000AA090E8000C82448344AAF10107DA45E2
:1001A00001D100F051F8AFF2090EBAE80F0013F0D8
:1001B000010F18BFFB1A43F001031847186A01002A
:1001C000386A01000A444FF0000C10F8013B13F0AC
:1001D000070408BF10F8014B1D1108BF10F8015BA0
:1001E000641E05D010F8016B641E01F8016BF9D193
:1001F00013F0080F1EBF10F8014BAD1C0C1B09D1EA
:100200006D1E58BF01F801CBFAD505E014F8016B5B
:1002100001F8016B6D1EF9D59142D6D370470000ED
:100220000023002400250026103A28BF78C1FBD8FF
:10023000520728BF30C148BF0B6070471FB50BF095
:1002400030FE1FBD10B510BD00F0D0F91146FFF70C
:10025000F5FF09F02DFA00F0EEF903B4FFF7F2FF15
:1002600003BC00F0F5F900002C4B19680868B0E8F1
:10027000F04F80F30988BFF36F8F4FF0000080F3D9
:10028000118870470000000008480068006880F38B
:1002900008884FF0000080F3148862B661B6BFF39F
:1002A0004F8FBFF36F8F00DF00BF00BF08ED00E08E
:1002B000DFF80C00016841F470010160704700BF75
:1002C00088ED00E0EFF30980BFF36F8F134B1A68DE
:1002D0001EF0100F08BF20ED108A20E9F04F1060CB
:1002E00009B44FF0500080F31188BFF34F8FBFF374
:1002F0006F8F0AF0F7FC4FF0000080F3118809BC03
:1003000019680868B0E8F04F1EF0100F08BFB0EC95
:10031000108A80F30988BFF36F8F70471C0200209A
:10032000EFF30580704700000948804709480047FF
:10033000FEE7FEE7FEE7FEE7FEE7FEE7FEE7FEE795
:10034000FEE7FEE704480549054A064B70470000F2
:10035000316000088901000818870020188D0020EE
:10036000188900201889002053EA020C00F06980E7
:100370002DE9F04B4FF00006002B1FBFB3FA83F5B9
:1003800003FA05F424FA05F65E4012BF1643B2FAEA
:1003900082F502FA05F4C5F120051EBF22FA05FC1C
:1003A00044EA0C04203556EA044C4FEA144418BFC2
:1003B000641C4FF000084FF00009904271EB030CF1
:1003C00039D3002919BFB1FA81F701FA07F6B0FA5B
:1003D00080F700FA07F6C7F120071EBF20FA07FCD6
:1003E00046EA0C062037B6FBF4FCA7EB0507103FE6
:1003F00007F01F0BCBF120060CFA0BFB2CFA06F6CC
:1004000044BFB3460026202FA4BF5E464FF0000B2A
:100410005BEA060C08BF4FF0010B19EB0B09ABFBB5
:10042000027C48EB0608C01B06FB02CC0BFB03CC8E
:1004300071EB0C01C1E70B46024641464846BDE858
:10044000F08B13B54FF000004FF00001AFF30080C8
:10045000BDE81C407047032A40F2308010F0030CC6
:1004600000F0158011F8013BBCF1020F624498BF07
:1004700011F801CB00F8013B38BF11F8013BA2F1A4
:10048000040298BF00F801CB38BF00F8013B11F01F
:10049000030300F05780083AC0F0088051F8043B8D
:1004A000083A51F804CBA0E80810F5E7121D5CBF2C
:1004B00051F8043B40F8043BAFF30080D20724BF5F
:1004C00011F8013B11F801CB48BF11F8012B24BFF3
:1004D00000F8013B00F801CB48BF00F8012B704742
:1004E00002F0FF0343EA032242EA024200F05EB850
:1004F0004FF0000200B5134694469646203922BFBD
:10050000A0E80C50A0E80C50B1F12001BFF4F7AF07
:10051000090728BFA0E80C5048BF0CC05DF804EBE9
:10052000890028BF40F8042B08BF704748BF20F857
:10053000022B11F0804F18BF00F8012B7047704755
:100540007047704710B5203AC0F00B80B1E81850E2
:10055000203AA0E81850B1E81850A0E81850BFF4AD
:10056000F5AF5FEA027C24BFB1E81850A0E818504C
:1005700044BF18C918C0BDE810405FEA827C24BFA0
:1005800051F8043B40F8043B08BF7047D20728BF2E
:1005900031F8023B48BF11F8012B28BF20F8023B7D
:1005A00048BF00F8012B70474FF000020429C0F04B
:1005B000128010F0030C3FF49DAFCCF1040CBCF1A1
:1005C000020F18BF00F8012BA8BF20F8022BA1EBE7
:1005D0000C01FFF78FBF5FEAC17C24BF00F8012B3D
:1005E00000F8012B48BF00F8012B7047754600F05A
:1005F0002BF8AE4605006946534620F007008546B5
:1006000018B020B5FFF79EFEBDE820404FF0000671
:100610004FF000074FF000084FF0000B21F00701EA
:10062000AC46ACE8C009ACE8C009ACE8C009ACE82D
:10063000C0098D46704710B50446AFF300802046D0
:10064000BDE81040FFF709BE00487047B48600209F
:1006500001491820ABBEFEE726000200704700BF2C
:10066000FEE7000010B5024800F007FC10BD0000D6
:100670009C02002010B5024800F0FFFB10BD0000F6
:100680009C02002010B5024800F0F7FB10BD0000EE
:100690009C02002010B5024800F0EFFB10BD0000E6
:1006A000C402002010B5024800F0E7FB10BD0000B6
:1006B000C402002010B5024800F0DFFB10BD0000AE
:1006C000C40200200346042B15D007DC7BB1012BAC
:1006D0000ED0022B0DD0032B12D10BE0202B0BD010
:1006E000212B0AD0222B09D0232B09D107E008E0C7
:1006F00007E006E005E004E003E002E001E000E0DE
:1007000000BF00BF002070470020704710B50022D6
:100710000449054806F0F5FB0449034806F0E2FBEE
:10072000002010BDDC2E002000220020DC2600204E
:1007300070B504460E46002503E0605D08F06AFFD0
:100740006D1C3068A842F8D82146044806F0CAFB60
:10075000024806F093FB002070BD0000002200203C
:1007600010B503460C460021084610BD00B58BB0FD
:10077000012009900020079001200890002001909E
:100780000290039004900590069001A90C4800F097
:1007900019FA0B4800F0C7FE0221094800F058F989
:1007A0000E200A90069001A9064800F00BFA0548B1
:1007B00000F0B9FE0221034800F04AF90BB000BD79
:1007C0009C020020C402002010B50246012000E077
:1007D00050430B1EA1F10104E1B2F9D110BD7047E5
:1007E00070B506460C46154608480670F3200749C2
:1007F0004870AB2088700846C47005716B20487142
:100800000621024808F052FD70BD00007C1F002048
:100810002DE9F04706460F4615469846DDE9099A48
:10082000089C10480670FD200E49487008468770E5
:100830002812C8700D71084680F80580200E887156
:10084000200CC871200A08724C72084680F80A9081
:1008500080F80BA06B2008730D21024808F026FDDC
:10086000BDE8F0879C1F002010B5044606480470C0
:100870000A20054948706D2088706B20C8700421DB
:10088000014808F013FD10BD4C1D002072B600BFDA
:10089000FEE7000070B50446B3F5804F13D1D1E9EF
:1008A000000540EA05108D6840EA05208D6928435F
:1008B0008D8940EA054054F82250064E35402843C1
:1008C00044F8220003E06FF0704044F8220000205A
:1008D00070BD00000000F0CF70B50246086852F805
:1008E000200020F001000E6842F8260088680828E1
:1008F00001D1402300E00023486818438E6830434C
:10090000CE6830430E6930434E693043CE69304380
:100910000E6A30434E6A30438E6A3043CE6A3043AB
:100920000E6B40EA060488690443C86B0443074D14
:1009300045F4806545F4E025086852F82000A84396
:1009400020430E6842F82600002070BD7FFB08009F
:1009500010B50346D1E9000440EA04108C6840EA6F
:1009600004208C8940EA0444088A401E44EA00546A
:10097000087D801E44EA00608C692043541C43F8C3
:100980002400002010BD000070B50A480468001D56
:100990000568001D0668344454B108220649204603
:1009A00003F090FB042204491031284603F08AFB2F
:1009B00070BD0000107AFF1F4E0100204288428166
:1009C0004A780B7842EA032212B24280CA788B78C6
:1009D00042EA032212B202804A790B7942EA0322E8
:1009E00012B282808A79C280B0F90220B0F90A304E
:1009F000D21AB2F5805F04DD8289521E12B2828162
:100A00000BE0B0F90220B0F90A30D21A12F5805F7B
:100A100003DA8289521C12B28281B0F90230B0F935
:100A20000C2003EB4232B0F90830D21A00EE102A43
:100A3000B8EEC00A80ED040A90ED040ADFED030A67
:100A400080EE201A80ED051A70470000610BB64158
:100A500010B5024692F82030012B01D0022B06D1AE
:100A600010684069084314686061002010BD506A36
:100A700040F4802050620120F8E7F0B504460D46AE
:100A80001E4694F8207020688368A86800B900E0CA
:100A900000BF012F01D0022F7DD103F0806030B95B
:100AA00003F0006018B903F0805000287ED0C3F333
:100AB0000161012088403060A86860B9B5F800C0C5
:100AC000E86840EA4C5C206800F5C07000EB01105B
:100AD000C0F800C00FE0D5E901C040EACC00D5F86D
:100AE0000CC040EA0C00D4F800C00CF5C07C0CEB44
:100AF000011CCCF80000D5F810C0206800F5C070CB
:100B000000EB0110C0F804C0287D01280ED1206838
:100B100000F5C07000EB0110406840F4807C206854
:100B200000F5C07000EB0110C0F804C0D0790006D9
:100B300092F806C040EA0C4092F805C040EA0C204A
:100B400092F804C040EA0C00D4F800C00CF5C07C58
:100B50000CEB011CCCF80C00D078000692F802C017
:100B600040EA0C4092F801C040EA0C2092F800C024
:100B700040EA0C00D4F800C00CF5C07C0CEB011C62
:100B8000CCF80800206800F5C07000EB0110006888
:100B900040F0010C01E00FE008E0206800F5C070B3
:100BA00000EB0110C0F800C00020F0BD606A40F406
:100BB000001060620120F8E7606A40F48020606203
:100BC0000120F2E7F0B504460A4694F82050012DC2
:100BD00001D0022D7ED1424901F50071086840F034
:100BE00001000860086820F47C5008600868566AB4
:100BF00040EA06200860107D00F01F06012000FA80
:100C000006F3C8699843C861A1F50071D069C8B9F5
:100C1000D1F80C029843C1F80C02908880B29689F2
:100C200040EA064601F51070576940F837601088B1
:100C300080B2168940EA064601F51070576900EB4C
:100C4000C7004660D069012819D1D1F80C021843B9
:100C5000C1F80C02908880B2168840EA064601F579
:100C60001070576940F83760908980B2168940EA61
:100C7000064601F51070576900EBC70046609069A1
:100C800028B9D1F804029843C1F8040204E0D1F86D
:100C900004021843C1F80402106928B9D1F81402FB
:100CA0009843C1F8140204E0D1F814021843C1F8C3
:100CB0001402106A012804D1D1F81C021843C1F8AB
:100CC0001C02D1F8000220F00100C1F8000200204F
:100CD000F0BDFFE7606A40F4802060620120F7E722
:100CE00000640040704770B5044694F82050012D10
:100CF00001D0022D7DD151B92068C06800F00300F9
:100D000080B9606A40F400106062012070BD206804
:100D1000006900F0030028B9606A40F400106062C6
:100D20000120F3E7206800F5D87000EB011000689F
:100D300000F004009060906840B9206800F5D87019
:100D400000EB01100068400D106007E0206800F51E
:100D5000D87000EB01100068C0085060206800F5F2
:100D6000D87000EB0110006800F00200D06020682D
:100D700000F5D87000EB0110406800F00F00082863
:100D800002D30820106108E0206800F5D87000EB5D
:100D90000110406800F00F001061206800F5D87065
:100DA00000EB0110406800F47F40000A9061206869
:100DB00000F5D87000EB01104068000C506120680D
:100DC00000F5D87000EB011080681870206800F5FD
:100DD000D87000EB0110806800F47F40000A587062
:100DE000206800F5D87000EB0110806800F47F00E7
:100DF00000E03CE0000C9870206800F5D87000EB33
:100E000001108068000ED870206800F5D87000EBE3
:100E10000110C0681871206800F5D87000EB01104F
:100E2000C06800F47F40000A5871206800F5D8704F
:100E300000EB0110C06800F47F00000C987120687E
:100E400000F5D87000EB0110C068000ED87131B900
:100E50002068C06840F020002668F06005E0206847
:100E6000006940F020002668306100204EE7606A8B
:100E700040F480206062012048E72DE9F05F0446DD
:100E80000025206846692068D0F8049020688768AB
:100E90002068D0F80CA02068D0F810B02068D0F8F6
:100EA000188006F00100002855D007F00100C0B1FD
:100EB00001202168886007F0020018B1204600F088
:100EC00062FB0EE007F0040010B145F4006508E095
:100ED00007F0080010B145F4805502E0204600F00C
:100EE00051FB07F48070C8B14FF4807021688860AE
:100EF00007F4007018B1204600F047FB0EE007F43D
:100F0000806010B145F4005508E007F4006010B1AE
:100F100045F4804502E0204600F036FB07F48030BF
:100F2000C8B14FF480302168886007F4003018B1F0
:100F3000204600F02CFB0EE007F4802010B145F4B1
:100F4000004508E007F4002010B145F4803502E0C8
:100F5000204600F01BFB06F0080038B10AF0100034
:100F600020B145F4007510202168C86006F0040027
:100F700040B10AF0080028B108202168C860204666
:100F800000F02CFA06F0020038B12068C06800F0CA
:100F9000030010B1204600F023FA06F0400038B1FB
:100FA0000BF0100020B145F4806510202168086125
:100FB00006F0200040B10BF0080028B1082021689D
:100FC0000861204600F0ACFA06F0100038B1206845
:100FD000006900F0030010B1204600F0A2FA06F408
:100FE000003040B109F0100028B11020216848609D
:100FF000204600F097FA06F4803040B109F008006E
:1010000028B1082021684860204600F0C1FA06F4A3
:10101000004088B309F0040078B306F4807020B172
:1010200008F0010008B145F0010506F4007020B198
:1010300008F0020008B145F0020506F4806020B116
:1010400008F0040008B145F0040506F40060A0B102
:1010500008F0700088B108F07000402817D006DC56
:1010600010280BD020280CD0302819D10CE05028A3
:1010700010D0602814D110E01DE019E045F00805FB
:101080000FE045F010050CE045F0200509E045F0C3
:10109000400506E045F0800503E045F4807500E07A
:1010A00000BF00BF2068806920F07000216888615F
:1010B0000420216848602DB1606A284360622046A0
:1010C000FFF710FEBDE8F09F70B504460CB9012093
:1010D00070BD94F8200010B9204600F0AFF82068E9
:1010E000006840F001002168086000F023FC05461C
:1010F0000DE000F01FFC401B0A2808D9606A40F48C
:1011000000306062052084F820000120E0E72068BC
:10111000406800F001000028EBD02068006820F053
:1011200002002168086000F005FC05460DE000F0B3
:1011300001FC401B0A2808D9606A40F40030606254
:10114000052084F820000120C2E72068406800F0F4
:1011500002000028EBD1207E012806D1206800681B
:1011600040F080002168086005E02068006820F0F9
:10117000800021680860607E012806D12068006830
:1011800040F040002168086005E02068006820F019
:10119000400021680860A07E012806D12068006810
:1011A00040F020002168086005E02068006820F019
:1011B000200021680860E07E012806D120680068D0
:1011C00020F010002168086005E02068006840F009
:1011D000100021680860207F012806D1206800687F
:1011E00040F008002168086005E02068006820F0F1
:1011F000080021680860607F012806D12068006827
:1012000040F004002168086005E02068006820F0D4
:10121000040021680860D4E90201084321690843F9
:10122000616908436168491E08432168C86100205C
:101230006062012084F82000002049E710B586B0E4
:101240000446142101A8FFF753F95F49206888423A
:1012500052D15E480068401C5C490860084600683E
:1012600001280FD100BF002000905948006840F0CD
:101270000070574908600846006800F00070009050
:1012800000BF00BF00BF0020009051481038006828
:1012900040F002004E49103908600846006800F02E
:1012A0000200009000BF00BF4FF440700190022088
:1012B000029000200390032004900920059001A9CA
:1012C000444800F03DFA00220521132000F0FAFB0B
:1012D000132000F0E3FB00220521142000F0F2FBB4
:1012E000142000F0DBFB00220521162000F0EAFBB1
:1012F000162000F0D3FB65E037492068884261D1B1
:1013000000BF002000903248006840F08060304903
:1013100008600846006800F08060009000BF00BFD1
:101320002A480068401C29490860084600680128CE
:101330000FD100BF002000902548006840F00070E9
:10134000234908600846006800F00070009000BF64
:1013500000BF00BF002000901D481038006840F01A
:1013600002001B49103908600846006800F00200BE
:10137000009000BF00BF4FF4405001900220029047
:1013800000200390032004900920059001A9114832
:1013900000F0D6F9002205213F2000F093FB3F200A
:1013A00000F07CFB00220521402000F08BFB402058
:1013B00000F074FB00220521422000F083FB422054
:1013C00000F06CFB06B010BD00640040140000206B
:1013D00040380240000402400068004070470000AE
:1013E00010B592B004464449206888423ED102AB11
:1013F0000BAA00214148FFF776FC0B98A0F20520CC
:10140000082831D2DFE800F00405060708090A0BB6
:1014100000BF00BF00BF00BF00BF00BF00BF0B98F0
:10142000401F37490870097801EB4101354A02EB4A
:10143000C10002A9FFF7C2FA334831490978405C7C
:1014400088B92F49097801EB41012E4A02EBC1000E
:1014500007F0F2FF2C482A490978405C401C2A49D1
:10146000274A1278885400E000BF00BF274920684F
:1014700088423FD16B4604AA00212548FFF733FC80
:101480000498A0F20120082832D2DFE800F0040519
:10149000060708090A0B00BF00BF00BF00BF00BF5E
:1014A00000BF00BF0498401E1A490870097801EB7C
:1014B0004101194A02EBC1006946FFF77FFA17485C
:1014C00014490978405C90B91249097801EB41014F
:1014D000114A02EBC10007F0AFFF10480D4909782F
:1014E000405C401CC1B20D480A4A1278815400E0A9
:1014F00000BF00BF12B010BD006400409C0200207D
:10150000340000200C060020350000200068004058
:10151000C40200203D000020CC0600203E00002038
:1015200070477047704770B5044694F82000012852
:1015300022D1022084F820002068006820F00100F9
:101540002168086000F0F6F905460DE000F0F2F9B8
:10155000401B0A2808D9606A40F400306062052008
:1015600084F82000012070BD2068406800F0010070
:101570000028EBD16062F6E7606A40F40020606208
:101580000120F0E770477047704770477047704719
:10159000704770B50446A56D00F0CCF9064694F886
:1015A0003500022808D08020606500BF002084F844
:1015B000340000BF012070BD2068006820F01600D4
:1015C000216808602068406920F080002168486137
:1015D000206C08B9A06C28B12068006820F00800D1
:1015E000216808602068006820F001002168086018
:1015F00010E000F09FF9801B05280BD920206065C2
:10160000032084F8350000BF002084F8340000BFB8
:101610000320D0E72068006800F001000028E8D12E
:1016200094F85C103F208840A860012084F83500C1
:1016300000BF002084F8340000BF00BFBBE70146B4
:1016400091F83500022803D08020486501207047BA
:10165000052081F835000868006820F001000A685C
:1016600010600020F3E7000070B5044600F062F956
:1016700006462546681C10B104480078054400BFA2
:1016800000F058F9801BA842FAD370BD84010020F5
:1016900000B587B0142102A8FEF72AFF234800688E
:1016A00008B107B000BD01202049086000BF00203C
:1016B00001901F48006840F001001D49086008467D
:1016C000006800F00100019000BF00BF4FF680707D
:1016D00002900220039000200490032005900C202B
:1016E000069002A9134800F02BF84CF233700290D8
:1016F0000220039000200490032005900C20069007
:1017000002A90D4800F01CF841F2040002900220EA
:10171000039000200490032005900C20069002A95D
:10172000064800F00DF800BFBBE7000018000020DD
:101730003838024000100240000C024000180240FD
:10174000F8B502460B460025002400200021D6E013
:10175000012606FA01F51E6806EA0504AC4274D1BA
:101760001E7906F00306012E04D01E7906F003064A
:10177000022E13D190684F000326BE40B0434F00A5
:10178000DE68BE4030439060506801268E40B04312
:101790001E79C6F300168E40304350601E7906F065
:1017A0000306032E09D0D0684F000326BE40B04385
:1017B0004F009E68BE403043D0601E7906F003069D
:1017C000022E13D1CF0802F1200656F827004E074B
:1017D000F70E0F26BE40B0434F07FF0E1E69BE40F6
:1017E0003043CF0802F1200646F8270010684F006A
:1017F0000326BE40B0431E7906F003064F00BE40EC
:10180000304310605E6806F44036002E76D000BF8C
:10181000002600963C4E366846F480463A4F3E60BD
:101820003E46366806F48046009600BF00BF374E3D
:101830008F0856F827008E07370F0F26BE40B0439B
:10184000334EB24202D1002624E057E0314EB2427C
:1018500001D101261EE0304EB24201D1022619E02C
:101860002E4EB24201D1032614E02D4EB24201D1D8
:1018700004260FE02B4EB24201D105260AE02A4E83
:10188000B24201D1062605E0284EB24201D1072618
:1018900000E008268F073F0FBE4030431B4E8F08E5
:1018A00046F82700224E3068A0435E6806F4801692
:1018B00006B120431E4E3060361D3068A0435E687E
:1018C00006F4001606B12043194E361D3060184E3E
:1018D000361F3068A0435E6806F4003606B1204328
:1018E000134E361F3060361F3068A0435E6806F422
:1018F000803606B120430E4E083E3060491C102948
:10190000FFF426AFF8BD000044380240083801401B
:10191000000002400004024000080240000C0240A7
:10192000001002400014024000180240001C024057
:10193000083C014001480068704700007C0100201D
:101940000348006803490978084401490860704762
:101950007C0100208401002010B50D48006840F48F
:1019600000700B4908600846006840F48060086019
:101970000846006840F480700860032000F0E0F83A
:101980000F2000F007F800F05FF8002010BD000005
:10199000003C02402DE9F04188B004460027B846DB
:1019A00000BF002001902348006840F0100021494A
:1019B00008600846006800F01000019000BF00BFFA
:1019C00002A903A801F064F8069F1FB901F088F886
:1019D000054602E001F084F845001748B5FBF0F039
:1019E000A0F1010815481649086040F2E731144893
:1019F000C160C0F80480002101618160816101F053
:101A0000C5FB064696B90E4801F072FC06466EB953
:101A1000362000F043F8102C07D200222146362051
:101A200000F050F80748046000E00126304608B096
:101A3000BDE8F0814038024040420F0000100040F5
:101A4000C40500208001002008B500BF00200090E0
:101A50001148006840F480400F490860084600685B
:101A600000F48040009000BF00BF00BF0020009045
:101A7000081F006840F08050091F08600846006891
:101A800000F08050009000BF00BF00220F21901E88
:101A900000F018F808BD000044380240014608462E
:101AA00000280DDB00BF00BF00F01F0301229A4099
:101AB00043099B0003F1E023C3F8002100BF00BFEE
:101AC00000BF70472DE9F05F80460D46164600279F
:101AD00007F0C2FB074639462A46334601F00700A5
:101AE000C0F1070ABAF1040F02D94FF0040A01E06D
:101AF000C0F1070AD14600F1040ABAF1070F02D279
:101B00004FF0000A01E0A0F1030AD4464FF0010AA9
:101B10000AFA09FAAAF1010A0AEA020A0AFA0CFA0E
:101B20004FF0010B0BFA0CFBABF1010B0BEA030BB3
:101B30004AEA0B042146404607F096FBBDE8F09FB9
:101B400000BF00F00702064B19684FF6FF0319406B
:101B5000044B0B4343EA0221014B196000BF70475D
:101B60000CED00E00000FA05704702461068416283
:101B700000207047F0B5034615461868446A21B93D
:101B800044EA05401E68B06219E01868806A04EBF8
:101B90001044002208E0186800F5827050F8220016
:101BA00004EB1044501CC2B2481E9042F3D844EAE1
:101BB0000547186800F582704E1E40F82670002018
:101BC000F0BD10B50446D4F8E00405F09CFE10BD4D
:101BD00070B504460D4605EBC50304F1140101EB95
:101BE0008301CA682946D4F8E00405F07FFD70BD82
:101BF00070B504460D4605EBC50304F5157101EB00
:101C00008301CA682946D4F8E00405F0F7FD70BDE9
:101C100010B50446D4F8E00405F078FE10BD2DE9B7
:101C2000F04104460D4605F08000802808D105F0FB
:101C30000F0000EBC00104F1140000EB810607E087
:101C400005F00F0000EBC00104F5157000EB8106F4
:101C50003146206807F0B0F807463846BDE8F08105
:101C600070B504460E4606F0800080280AD106F0C2
:101C70000F0000EBC00104F1140000EB810501200E
:101C8000687009E006F00F0000EBC00104F5157064
:101C900000EB81050020687006F00F00287000BF7F
:101CA00094F89404012801D1022070BD012084F829
:101CB000940400BF2946206806F00CFC00BF0020F9
:101CC00084F8940400BF00BFEFE770B504460E46E9
:101CD00006F00F002179884201D9012070BD06F07D
:101CE000800080280AD106F00F0000EBC00104F14B
:101CF000140000EB81050120687009E006F00F0078
:101D000000EBC00104F5157000EB81050020687040
:101D10000020A87006F00F00287000BF94F894040B
:101D2000012801D10220D9E7012084F8940400BFE2
:101D30002946206806F0CCFD00BF002084F89404FA
:101D400000BF00BFCAE7024601F00F0000EBC0036E
:101D500002F5157000EB8300406970472DE9F047EC
:101D600005460E4690461F464FF0000906F08000DB
:101D700080280AD106F00F0000EBC00105F1140025
:101D800000EB81040120607009E006F00F0000EB19
:101D9000C00105F5157000EB81040020607006F0AD
:101DA0000F002070C8F30A00A0602771607808B1A6
:101DB00020786083022F01D10020607100BF95F868
:101DC0009404012802D10220BDE8F087012085F8A3
:101DD000940400BF2146286806F088FA00BF00205E
:101DE00085F8940400BF4846EEE72DE9F04105462A
:101DF0000E461746984606F00F0000EBC00105F5A9
:101E0000157000EB8104E760C4F810800020606169
:101E1000607006F00F002070A879012800D1E761FA
:101E2000AA792146286806F0E7FD0020BDE8F08188
:101E300070B504460D4605F00F002179884201D99E
:101E4000012070BD05F0800080280AD105F00F0048
:101E500000EBC00104F1140000EB8106012070705A
:101E600007E005EBC50104F5157000EB81060020C5
:101E700070700120B07005F00F00307000BF94F852
:101E80009404012801D10220DBE7012084F89404A6
:101E900000BF3146206806F062FD05F00F0028B94A
:101EA000A17904F29C42206806F0DAFC00BF002011
:101EB00084F8940400BF00BFC3E72DE9F041054654
:101EC0000E461746984606F00F0000EBC00105F1DC
:101ED000140000EB8104E760C4F81080002060610A
:101EE0000120607006F00F002070A879012800D151
:101EF000E761AA792146286806F07EFD0020BDE84A
:101F0000F0812DE9FE4F0446D4F800B05E4620680B
:101F100007F034F8002874D1206807F06EF808B98B
:101F2000BDE8FE8F40F608008059C0F30D20C4F8CC
:101F3000D404206807F061F800F00200022805D1FF
:101F40002068406900F0020021684861206807F0BD
:101F500054F800F01000102845D12068806920F066
:101F6000100021688861DBF8209009F00F0000EB79
:101F7000C00104F5157000EB810AC9F34340022843
:101F80001AD147F6F07009EA000030B3C9F30A121B
:101F90005846DAF80C1007F035F8C9F30A11DAF8E8
:101FA0000C000844CAF80C00C9F30A11DAF814004E
:101FB0000844CAF8140010E0C9F3434006280CD1C5
:101FC000082204F29C41584607F01CF8C9F30A1194
:101FD000DAF814000844CAF814002068806940F058
:101FE000100021688861206807F007F800F40020DD
:101FF000B0F5002F7BD10025206806F0CEFF0290BF
:1020000072E0E1E2029800F00100002868D0E9B235
:10201000206806F0E5FF804608F0010048B1012184
:1020200006F5306000EB451081602946204603F03C
:10203000F3F908F00800082809D1082106F53060F6
:1020400000EB451081602946204603F0B3F908F003
:102050001000102805D1102106F5306000EB451066
:10206000816008F00200022824D1DBF8140000F09F
:102070008000802807D140F60400805940F4806138
:1020800040F60400815105EBC50104F5157000EB25
:10209000810A9AF80300012806D100208AF803007B
:1020A000E9B2204600F09BFA022106F5306000EB11
:1020B0004510816008F02000202805D1202106F578
:1020C000306000EB4510816008F40050B0F5005F0F
:1020D00006D14FF4005106F5306000EB45108160E9
:1020E0006D1C029840080290029800288AD120684E
:1020F00006F083FF00F48020B0F5802F7DD12068AA
:1021000006F041FF029000259AE0029800F00100DD
:10211000002873D0E9B2206806F049FF804608F035
:102120000100F0B305F00F0101208840019040F656
:1021300034008159019821EA000040F634018851A9
:10214000012106F5106000EB45108160A07901289F
:1021500024D105EBC50104F1140000EB810005EB6F
:10216000C502C16804F1140000EB820080680144DC
:1021700005EBC50204F1140000EB8200C1606DB9EB
:1021800005EBC50104F1140000EB8100006928B9DA
:1021900004F29C420121206806F062FBE9B220466D
:1021A00000E001E0FFF714FD08F00800082805D161
:1021B000082106F5106000EB4510816008F0100062
:1021C000102805D1102106F5106000EB4510816044
:1021D00008F04000402805D1402106F5106000EBD2
:1021E0004510816008F0020002281DD1294658469A
:1021F00006F087FE05EBC50101E025E01CE004F1D7
:10220000140000EB810A9AF80300012806D100208F
:102210008AF80300E9B2204600F0D8F9022106F559
:10222000106000EB4510816008F08000802803D129
:102230002946204603F092F96D1C0298400802904E
:10224000029800287FF461AF206806F0D6FE00F007
:102250000040B0F1004F1CD140F60400805920F03E
:10226000010140F60400815194F8CC04012807D103
:10227000002084F8CC0400212046FFF775FC02E022
:10228000204600F0D1FA2068406900F00040216843
:102290004861206806F0B1FE00F40060B0F5006F00
:1022A0000ED140F60800805900F0010010B1204620
:1022B00000F012FB2068406900F40060216848616A
:1022C000206806F09AFE00F48050B0F5805F7ED161
:1022D00040F60400805920F0010140F604008151CD
:1022E0001021206806F00DFE002732E04FF67F3106
:1022F00006F5106000EB4710816006F5106000EBFA
:102300004710006820F4001106F5106000EB47103C
:1023100001604FF67F3106F5306000EB47108160B9
:1023200006F5306000EB4710006820F4001106F558
:10233000306000EB4710016006F5306000EB47109D
:10234000006840F0006106F5306000EB4710016066
:102350007F1C2079B842C9D840F61C00805940F053
:10236000011140F61C008151E07B70B1D6F8840861
:1023700040F00B01C6F8841840F64400805940F044
:102380000B0140F6440081510FE040F614008059E3
:1023900042F22B01084340F614018851081F80596E
:1023A00040F00B014FF401608151D6F8000820F491
:1023B000FE60C6F80008A17904F29C42206806F08D
:1023C0004FFA2068406900F48050216800E000E086
:1023D0004861206806F011FE00F40050B0F5005F7F
:1023E00017D1206805F0EAFF206806F0B4FDE0711F
:1023F00000F070FB0090E2792068009906F084FEFE
:10240000204600F0F9F92068406900F40050216886
:102410004861206806F0F1FD00F00800082808D1A6
:10242000204600F008FA2068406900F008002168A2
:102430004861206806F0E1FD00F08000802818D196
:10244000DBF8180020F08000CBF8180001250DE023
:1024500005EBC50104F5157000EB8100C07801287B
:1024600003D1E9B22046FFF7DAFB6D1C2079A842C0
:10247000EED8206806F0C1FD00F48010B0F5801F92
:102480002DD1012522E006F5106000EB4510D0F8B3
:10249000009005EBC50104F1140000EB8100007908
:1024A000012812D109F00040B0F1004F0DD10121F7
:1024B00005EBC50204F1140000EB8200C170E8B224
:1024C00040F080012046FFF7AAFB6D1C2079A8424E
:1024D000D9D82068406900F48010216848612068DC
:1024E00006F08BFD00F40010B0F5001F44D101256B
:1024F00038E006F5306000EB4510D0F8009005EBB1
:10250000C50104F5157000EB81000079012828D180
:1025100009F00040B0F1004F23D194F8D40400F04A
:102520000100C9F3004188421BD1012105EBC5021E
:1025300004F5157000EB8200C170DBF8180040F064
:102540008000CBF81800DBF8140000F0800040B9E0
:1025500040F60400805940F4007140F604008151B7
:1025600003E06D1C2079A842C3D800BF20684069F1
:1025700000F4001021684861206806F03EFD00F07C
:102580008040B0F1804F08D12046FFF71AFB206849
:10259000406900F0804021684861206806F02DFD08
:1025A00000F0040004280FD12068D0F8049009F04E
:1025B0000400042802D12046FFF72AFB2068406867
:1025C00040EA09002168486000BFA9E470B50446EC
:1025D0000D462946D4F8E00405F004FA70BD70B544
:1025E00004460D462946D4F8E00405F01FFA70BDF4
:1025F000F8B504460CB90120F8BD266894F8950496
:1026000028B9002084F89404204600F0A1F80320A3
:1026100084F89504B6F1A04F01D10021A171206882
:1026200006F016F9207C8DF8000094E80F0005F004
:10263000D9FE20B1022084F895040120DCE70021B6
:10264000206806F00FFD20B1022084F895040120D7
:10265000D2E7002531E0012105EBC50204F11400A9
:1026600000EB8200417005EBC50104F1140000F895
:10267000215005EBC50100EB81004583002105EBEE
:10268000C50204F1140000EB8200017105EBC502E4
:1026900004F1140000EB8200816005EBC50204F137
:1026A000140000EB8200C16005EBC50204F11400C8
:1026B00000EB82000161681CC5B22079A842CADC27
:1026C00000252AE0002105EBC50204F5157000EB9A
:1026D0008200417005EBC50104F5157000F821502A
:1026E000002105EBC50200EB8200017105EBC5027C
:1026F00004F5157000EB8200816005EBC50204F55E
:10270000157000EB8200C16005EBC50204F5157081
:1027100000EB82000161681CC5B22079A842D1DCBF
:10272000207C8DF8000094E80F0005F09DFF20B19B
:10273000022084F8950401205EE7002060740120E7
:1027400084F89504206805F07DFF002054E7000020
:1027500010B586B00446142101A8FDF7C9FE206813
:10276000B0F1A04F42D100BF002000902048006887
:1027700040F001001E4908600846006800F00100B2
:10278000009000BF00BF4FF4C050019002200290A3
:1027900000200390032004900A20059001A9154809
:1027A000FEF7CEFF00BF1248001D006840F0800019
:1027B0000F49091D086000BF002000900C4814302C
:1027C000006840F480400A491431086008460068F7
:1027D00000F48040009000BF00BF00BF0022052130
:1027E0004320FFF76FF94320FFF758F906B010BDFB
:1027F000303802400000024070B504460125E079FF
:1028000008B9002506E0E079022801D1012501E0A0
:10281000FEF73CF82946D4F8E00405F0B1F9D4F805
:10282000E00405F057F970BD10B50446D4F8E00493
:1028300005F087F910BD10B50446D4F8E00405F0A2
:102840008BF910BD70B504460D4600BF94F8940492
:10285000012801D1022070BD012084F8940400BF3A
:1028600065742946206806F031FC00BF002084F81A
:10287000940400BF00BFEEE710B5044604F29C418B
:10288000D4F8E00405F093F910BD70B5044625684E
:1028900000BF94F89404012801D1022070BD0120EA
:1028A00084F8940400BFE86800F0400030B1607B19
:1028B000012803D1A86B40F48030A863206806F09B
:1028C000F1FA206805F0ACFE00BF002084F8940403
:1028D00000BF00BFE2E7000010B50446D4F8E004F2
:1028E00005F0C2F92068D0F8000E40F00100216820
:1028F000C1F8000EE07A28B10348006840F00600F5
:102900000149086010BD000010ED00E070B50446FC
:102910000D460CB9012070BD5848006800F0070052
:10292000A84209D255490D700846006800F007001A
:10293000A84201D00120EEE7207800F00200022832
:102940001DD1207800F00400042805D14C4800680F
:1029500040F4E0504A490860207800F00800082858
:1029600005D14748006840F4604045490860444844
:10297000006820F0F000A168084341490860207811
:1029800000F00100A8B36068012807D13C4808386E
:102990000068C0F34040B8B90120BCE76068022875
:1029A00002D06068032807D1354808380068C0F3B2
:1029B000406048B90120AEE7314808380068C0F3EC
:1029C000400008B90120A6E72D48006820F0030068
:1029D000616808432A490860FEF7ACFF064609E033
:1029E000FEF7A8FF801B41F28831884202D90320FC
:1029F00091E707E02248006800F00C006168B0EB46
:102A0000810FEDD11D48006800F00700A84209D9E8
:102A10001A490D700846006800F00700A84201D06E
:102A2000012078E7207800F00400042807D114483A
:102A3000006820F4E050E1680843114908602078FC
:102A400000F00800082808D10D48006820F4604014
:102A5000216940EAC1000A49086000F061F80849AC
:102A60000968C1F30311074A515CC8400649086070
:102A700006480068FEF78EFF00204CE7003C02404D
:102A800008380240846B0108880100208001002082
:102A90000F2202600D4A126802F0030242600B4AE4
:102AA000126802F0F0028260084A126802F4E052F2
:102AB000C260064A126802F46042D2080261044A07
:102AC000126802F007020A607047000008380240EE
:102AD000003C024001480068704700008801002067
:102AE00000B5FFF7F7FF04490968C1F38221034AE3
:102AF000515CC84000BD000008380240946B0108DA
:102B000000B5FFF7E7FF04490968C1F34231034A02
:102B1000515CC84000BD000008380240946B0108B9
:102B20002DE9F047002400250026A146254800682D
:102B300000F00C0020B1042805D008283AD105E0A7
:102B4000DFF8849039E0DFF8849036E01D48001FFC
:102B5000006800F03F041B48001F006800F480007C
:102B600078B11A481749091F0968C1F38811A0FBF9
:102B700001700146224600233846FDF7F5FB054665
:102B80000EE011480F49091F0968C1F38811A0FB25
:102B900001700146224600233846FDF7E5FB054655
:102BA0000848001F0068C0F30140401C4600B5FB08
:102BB000F6F902E0DFF8109000BF00BF4846BDE81C
:102BC000F0870000083802400024F40000127A0068
:102BD000F8B504460CB90120F8BD207800F00100DA
:102BE000002874D0F948006800F00C0004280DD0CB
:102BF000F648006800F00C00082813D1F348001FC5
:102C0000006800F48000B0F5800F0BD1EF48083861
:102C10000068C0F34040002859D06068002856D1B1
:102C20000120D9E700BF6068B0F5803F08D1E748D0
:102C30000838006840F48030E449083908601EE034
:102C40006068B0F5A02F0DD1E0480838006840F466
:102C50008020DE49083908600846006840F480306A
:102C600008600CE0D9480838006820F48030D74963
:102C7000083908600846006820F48020086000BF1A
:102C8000606890B1FEF756FE054606E0FEF752FE7C
:102C9000401B642801D903209EE7CC48083800680F
:102CA000C0F340400028F1D011E0FEF743FE054696
:102CB00006E0FEF73FFE401B642801D903208BE7A6
:102CC000C24808380068C0F340400028F1D120789D
:102CD00000F0020002285FD1BC48006800F00C0040
:102CE00058B1BA48006800F00C0008281CD1B74859
:102CF000001F006800F48000B0B9B44808380068CC
:102D0000C0F3400020B1E068012801D0012063E752
:102D1000AE480838006820F0F800216940EAC10098
:102D2000AA490839086037E0E06800B30120A849E3
:102D30000860FEF7FFFD054606E0FEF7FBFD401BC1
:102D4000022801D9032047E7A04808380068C0F3EB
:102D500040000028F1D09D480838006820F0F800B5
:102D6000216940EAC10099490839086014E000204F
:102D700097490860FEF7DEFD054606E0FEF7DAFD3E
:102D8000401B022801D9032026E790480838006834
:102D9000C0F340000028F1D1207800F00800082896
:102DA0002CD16069A8B101208A490860FEF7C2FDF4
:102DB000054606E0FEF7BEFD401B022801D90320B0
:102DC0000AE782486C300068C0F340000028F1D068
:102DD00014E000207F490860FEF7ACFD054606E0E0
:102DE000FEF7A8FD401B022801D90320F4E677482E
:102DF0006C300068C0F340000028F1D1207800F06A
:102E00000400042870D1002770483830006800F0B2
:102E1000805090B900BF002000906C4838300068A6
:102E200040F080506949383108600846006800F079
:102E30008050009000BF00BF01276748006800F481
:102E40008070B0B96448006840F4807062490860DE
:102E5000FEF770FD054606E0FEF76CFD401B0228FC
:102E600001D90320B8E65C48006800F480700028AF
:102E7000F2D000BFA068012808D15448683000682B
:102E800040F001005149683108601DE0A068052844
:102E90000DD14E486830006840F004004B4968315D
:102EA00008600846006840F0010008600CE04748F0
:102EB0006830006820F00100444968310860084625
:102EC000006820F00400086000BFA068A8B1FEF709
:102ED00031FD054609E0FEF72DFD401B41F288312A
:102EE000884202D9032077E626E038486830006837
:102EF000C0F340000028EED013E0FEF71BFD0546AE
:102F000008E0FEF717FD401B41F28831884201D9E5
:102F1000032061E62D4868300068C0F340000028B7
:102F2000EFD1012F07D129483830006820F08050B8
:102F300026493831086000BFA069002845D02348E1
:102F4000006800F00C0008285DD0A069022845D177
:102F500000201F490866FEF7EDFC054606E0FEF777
:102F6000E9FC401B022801D9032035E61748083840
:102F70000068C0F340600028F1D1D4E9070108439C
:102F8000616A40EA81110122A06AC2EB500041EA65
:102F900000412C20005D41EA00600C49091F0860D7
:102FA00001200B490866FEF7C5FC054606E0FEF762
:102FB000C1FC401B022801D903200DE60348083854
:102FC0000068C0F340600028F1D049E008380240B2
:102FD00000004742800E4742007000400020214917
:102FE0000866FEF7A7FC054606E0FEF7A3FC401BBB
:102FF000022801D90320EFE51B480068C0F34060B8
:103000000028F2D12CE0A069012800D1E4E516489F
:10301000001D0668A069012820D006F48001E0693F
:1030200081421BD106F03F01206A814216D147F64A
:10303000C0703040616AB0EB811F0FD106F440319F
:103040000122A06AC2EB5000B1EB004F06D106F09E
:1030500070612C20005DB1EB006F01D00120BBE559
:103060000020B9E5000047420038024070B5044630
:103070000E4615460CB9012070BD94F8490028B9D8
:10308000002084F84800204600F01FF804F10801F1
:103090002068FDF721FC3146A2682068FDF758FC46
:1030A0002946236BD4E90102FDF7F4FBA1682068EF
:1030B00050F8210040F00100A268216841F8220088
:1030C000012084F849000020D6E710B50446FEF739
:1030D000DFFA10BD7047704730B502460B4600BF9F
:1030E00092F83C00012801D1022030BD012082F875
:1030F0003C0000BF022082F83D0010684468106860
:10310000816824F070041868044310684460184D06
:103110001068A8421BD01068B0F1804F17D0154D31
:103120001068A84213D0144D1068A8420FD0134D58
:103130001068A8420BD0124D1068A84207D0114D5C
:103140001068A84203D0104D1068A84205D121F0A4
:1031500080015868014310688160012082F83D00B9
:1031600000BF002082F83C0000BF00BFBDE70000A8
:10317000000001400004004000080040000C004036
:1031800000040140004001400018004010B5044612
:103190000CB9012010BD94F83D0028B9002084F836
:1031A0003C00204600F026F8022084F83D00211D56
:1031B000206802F071FF012084F8460000BF84F807
:1031C0003E0001213F20015540200155412001557D
:1031D00000BF00BF012084F8420043200155442075
:1031E00001554520015500BF012084F83D00002015
:1031F000D0E7000038B504462068B0F1804F18D100
:1032000000BF002000903648006840F001003449BB
:1032100008600846006800F00100009000BF00BF91
:10322000002205211C20FEF74DFC1C20FEF736FC79
:1032300055E02C492068884218D100BF002000903A
:103240002748006840F002002549086008460068E9
:1032500000F00200009000BF00BF002205211D20E9
:10326000FEF730FC1D20FEF719FC38E01E492068EF
:10327000884218D100BF002000901948006840F033
:103280000400174908600846006800F00400009038
:1032900000BF00BF002205211E20FEF713FC1E20E8
:1032A000FEF7FCFB1BE011492068884217D100BFE4
:1032B000002000900A48006840F4807008490860C7
:1032C0000846006800F48070009000BF00BF002234
:1032D00005212D20FEF7F6FB2D20FEF7DFFB38BD84
:1032E0004038024000040040000800400020004038
:1032F000014691F83D00012801D0012070470220CD
:1033000081F83D000868C06840F001000B68D86093
:103310001A4B086898421BD00868B0F1804F17D04C
:10332000174B0868984213D0164B086898420FD084
:10333000154B086898420BD0144B0868984207D088
:10334000134B0868984203D0124B086898420CD17E
:103350000868806800F00702062A0CD00868006838
:1033600040F001000B68186005E00868006840F054
:1033700001000B6818600020C0E700000000014059
:103380000004004000080040000C00400004014020
:1033900000400140001800402DE9F04104460D4670
:1033A000002700BF94F83C00012802D10220BDE8AC
:1033B000F081012084F83C0000BF022084F83D0029
:1033C0002068866826F0770626F47F4620688660A7
:1033D0002868502833D00CDC202850D004DC00288A
:1033E0004BD0102851D149E0302849D040284CD149
:1033F00039E060282DD0702807D0B0F5805F03D069
:10340000B0F5005F41D10DE041E0D5E902136A68F3
:10341000206802F0C2FE2068866846F077062068C1
:10342000866034E0D5E902136A68206802F0B5FED0
:103430002068806840F480402168886027E0EA685E
:103440006968206802F09AFF5021206802F0B0FEFF
:103450001DE0EA686968206802F0A3FF6021206827
:1034600002F0A6FE13E0EA686968206802F086FFB1
:103470004021206802F09CFE09E000BF00BF00BFB1
:103480002968206802F094FE01E0012700BF00BF18
:10349000012084F83D0000BF002084F83C0000BFFC
:1034A000384684E7704770B504462068C5682068D0
:1034B000066906F00200022819D105F00200022870
:1034C00015D1401F2168086101202077206880699C
:1034D00000F0030018B12046FFF7E4FF05E02046A6
:1034E00000F0C6F8204600F07AF90020207706F0B8
:1034F0000400042819D105F00400042815D1C043A4
:1035000021680861022020772068806900F44070FB
:1035100018B12046FFF7C6FF05E0204600F0A8F8E6
:10352000204600F05CF90020207706F0080008280B
:1035300019D105F00800082815D1C0432168086199
:10354000042020772068C06900F0030018B12046ED
:10355000FFF7A8FF05E0204600F08AF8204600F0BB
:103560003EF90020207706F01000102819D105F050
:103570001000102815D1C043216808610820207769
:103580002068C06900F4407018B12046FFF78AFF38
:1035900005E0204600F06CF8204600F020F90020FD
:1035A000207706F0010048B105F0010030B16FF05E
:1035B000010021680861204600F098F906F08000BB
:1035C000802809D105F08000802805D1C0432168FA
:1035D00008612046FFF77EFD06F04000402809D133
:1035E00005F04000402805D1C0432168086120460D
:1035F00000F08AF906F02000202809D105F020000B
:10360000202805D1C043216808612046FFF763FDEB
:1036100070BD000010B586B00446142101A8FCF767
:1036200067FF2068B0F1804F1CD100BF00200090E0
:103630000D48006840F001000B490860084600682A
:1036400000F00100009000BF00BF0F200190022099
:1036500002900020039004900120059001A90348E6
:10366000FEF76EF806B010BD303802400000024090
:1036700070472DE9F04104460D461646002700BF6D
:1036800094F83C00012802D10220BDE8F08101201D
:1036900084F83C0000BF36B1042E1BD0082E31D078
:1036A0000C2E5ED145E02946206802F08BFD206893
:1036B000806940F00800216888612068806920F0F6
:1036C00004002168886120688069296908432168AD
:1036D000886148E02946206802F0ACFD20688069D6
:1036E00040F40060216888612068806920F480606F
:1036F0002168886120688069296940EA0120216881
:10370000886130E02946206802F0D2FD2068C06957
:1037100040F008002168C8612068C06920F00400FA
:103720002168C8612068C069296908432168C861A7
:1037300019E02946206802F0F7FD2068C06940F4CE
:1037400000602168C8612068C06920F48060216839
:10375000C8612068C069296940EA01202168C86100
:1037600001E0012700BF00BF00BF002084F83C003B
:1037700000BF384689E710B504460CB9012010BDDA
:1037800094F83D0028B9002084F83C00204600F061
:1037900025F8022084F83D00211D206802F07CFC01
:1037A000012084F8460000BF84F83E0001213F203C
:1037B0000155402001554120015500BF00BF0120A7
:1037C00084F842004320015544200155452001550D
:1037D00000BF012084F83D000020D0E7704770470B
:1037E00070B504460D4615B994F83E000BE0042D63
:1037F00002D13F20005D06E0082D02D14020005D8F
:1038000001E04120005D012801D0012070BD1DB9FB
:10381000022084F83E000EE0042D03D102213F2057
:10382000015508E0082D03D102214020015502E096
:1038300002214120015501222946206802F09CFC0A
:1038400023492068884203D022492068884201D158
:10385000012000E0002028B12068406C40F40040C6
:10386000216848641A49206888421BD02068B0F15A
:10387000804F17D018492068884213D01749206814
:1038800088420FD01649206888420BD01149206821
:10389000884207D013492068884203D01249206823
:1038A00088420CD12068806800F00706062E0CD0F4
:1038B0002068006840F001002168086005E0206889
:1038C000006840F001002168086000209EE70000C9
:1038D00000000140000401400004004000080040D6
:1038E000000C0040004001400018004010B50446A4
:1038F00004492068884201D1FEF722F8204601F0F1
:103900003DFD10BD0010004070477047704700003B
:103910002DE9F84F0446206805682068C6682068CD
:1039200047694FF00009CA4605F00F09B9F1000FC9
:103930000AD105F0200038B106F0200020B1204661
:1039400002F049FEBDE8F88FB9F1000F7CD007F016
:10395000010018B906F49070002875D005F0010038
:1039600030B106F4807018B1606C40F00100606402
:1039700005F0040030B107F0010018B1606C40F0B0
:103980000200606405F0020030B107F0010018B1D8
:10399000606C40F00400606405F0080048B106F077
:1039A000200010B907F0010018B1606C40F0080069
:1039B0006064606C002846D005F0200028B106F055
:1039C000200010B1204602F006FE20684069C0F3D6
:1039D000801A606C00F0080010B9BAF1000F2DD009
:1039E000204602F0B2FD2068406900F04000402807
:1039F00020D100BF00BF2168143151E8001F21F021
:103A000040002168143141E80002002AF3D100BFD0
:103A1000E06B50B17F48E16B0865E06BFDF70FFE8E
:103A200088B1E06B016D88470DE02046FFF76EFF1F
:103A300009E009E02046FFF769FF04E02046FFF7B0
:103A400065FF002060647DE7206B012878D105F0D8
:103A50001000002874D006F010000028FAD000BF33
:103A60000020009020680068009020684068009066
:103A700000BF00BF2068406900F04000402870D1BE
:103A8000E06B006840681FFA80F8B8F1000F58D06A
:103A9000A08D404555DDA4F82E80E06BC069B0F5DF
:103AA000807F43D000BF00BF21680C3151E8001F68
:103AB00021F4807021680C3141E80002002AF3D122
:103AC00000BF00BF00BF2168143151E8001F21F082
:103AD00001002168143141E80002002AF3D100BF3F
:103AE00000BF00BF2168143151E8001F21F04000E1
:103AF0002168143141E80002002AF3D100BF2020E0
:103B000084F842000020206300BF00BF21680C3110
:103B100051E8001F21F0100021680C3141E800023B
:103B2000002AF3D100BFE06BFDF733FD0220606394
:103B3000A08DE28D801A81B22046FFF7E6FE0EE0EE
:103B400052E0A08D40450AD1E06BC069B0F5807F9E
:103B500005D102206063A18D2046FFF7D6FEF1E675
:103B6000FFE7A08DE18D401A1FFA80F8E08DD0B3F9
:103B7000B8F1000F37D000BF00BF21680C3151E809
:103B8000001F21F4907021680C3141E80002002AE6
:103B9000F3D100BF00BF00BF2168143151E8001FFE
:103BA00021F001002168143141E80002002AF3D11C
:103BB00000BF202084F842000020206300BF00BF27
:103BC00021680C3151E8001F21F0100021680C31F0
:103BD00041E80002002AF3D100BF022060634146A1
:103BE0002046FFF792FEADE605F0800030B106F00A
:103BF000800018B1204602F0A3FEA3E605F04000C5
:103C000030B106F0400018B1204602F0D4FC99E62D
:103C100000BF97E63965000810B504460CB90120CD
:103C200010BDA06900B100E000BF94F8410028B9C0
:103C3000002084F84000204600F02AF8242084F870
:103C400041002068C06820F400502168C860204608
:103C500002F040FD2068006920F49040216808616E
:103C60002068406920F02A00216848612068C06807
:103C700040F400502168C86000206064202084F86F
:103C8000410084F842000020606300BFC8E70000E4
:103C900010B586B00446142101A8FCF729FCAB49F5
:103CA0002068884239D100BF00200090A8480068F1
:103CB00040F40020A64908600846006800F400208F
:103CC000009000BF00BF00BF00200090A048103847
:103CD000006840F004009E491039086008460068FA
:103CE00000F00400009000BF00BF4FF4406001905E
:103CF00002200290002003900320049008200590E9
:103D000001A99448FDF71CFD002205213420FDF790
:103D1000D9FE3420FDF7C2FE15E18F4920688842A4
:103D200055D100BF002000908948006840F4801001
:103D3000874908600846006800F48010009000BFC2
:103D400000BF00BF0020009081481038006840F09C
:103D500004007F49103908600846006800F004003C
:103D6000009000BF00BF00BF002000900846006820
:103D700040F0080008600846006800F00800009065
:103D800000BF00BF88140190022002900020039021
:103D9000032004900820059001A96E48FDF7D0FC8F
:103DA0000420019002200290002003900320049040
:103DB0000820059001A96948FDF7C2FC00220521F1
:103DC0003520FDF77FFE3520FDF768FEBBE0644936
:103DD000206888423BD100BF002000905C48001D55
:103DE000006840F010005A49091D08600846006844
:103DF00000F01000009000BF00BF00BF0020009046
:103E000053481038006840F00100514910390860EB
:103E10000846006800F00100009000BF00BF4FF4AA
:103E2000C0600190022002900020039003200490C3
:103E30000720059001A94B48FDF782FC00220721CD
:103E40002520FDF73FFE2520FDF728FE7BE04649B3
:103E50002068884239D100BF002000903C480068AB
:103E600040F480203A4908600846006800F4802049
:103E7000009000BF00BF00BF002000903448103801
:103E8000006840F0020032491039086008460068B6
:103E900000F00200009000BF00BF4FF440600190AE
:103EA0000220029000200390032004900720059038
:103EB00001A92E48FDF744FC002205212720FDF72B
:103EC00001FE2720FDF7EAFD3DE0294920688842F0
:103ED00039D100BF002000901D48001D006840F04F
:103EE00020001B49091D08600846006800F02000FA
:103EF000009000BF00BF00BF0020009014481038A1
:103F0000006840F004001249103908600846006853
:103F100000F00400009000BF00BFC020019002200C
:103F2000029000200390032004900820059001A92E
:103F30000848FDF705FC002205214720FDF7C2FDDA
:103F40004720FDF7ABFD06B010BD0000004C00405F
:103F5000403802400008024000500040000C02407F
:103F600000100140000002400048004000040240F0
:103F70000014014070B504460D46164694F8420000
:103F800020280BD105B10EB9012070BD002020639F
:103F900032462946204602F0B3FCF6E70220F4E759
:103FA00038B504461E49206888420FD11D48007864
:103FB000009000231A4669461B48006805F056FD2C
:103FC000012218491948FFF7D5FF00BF184920689A
:103FD000884208D11748007805F076FA0122154981
:103FE0001548FFF7C7FF15492068884204D1012210
:103FF00013491448FFF7BEFF13492068884204D1D3
:10400000012212491248FFF7B5FF12492068884281
:1040100004D1012210491148FFF7ACFF38BD000060
:1040200000100140F400002010000020EC040020EB
:1040300000480040F700002034050020004C0040FC
:10404000F80000205C04002000500040F90000202F
:10405000A404002000140140FA0000207C05002088
:1040600010B5034693F84100202813D101B10AB9D5
:10407000012010BD19629A84DA840020586421203E
:1040800083F841001868C06840F080001C68E06058
:104090000020EEE70220ECE7704700BFFEE70000DB
:1040A000D321074A1180911C0888088808884FF698
:1040B000FF7101EA0020911C098808437047000045
:1040C000FE1F006C30B50B46002100BF16E00A242D
:1040D000B4EB107F05D9302404EB107403F81140C1
:1040E00005E0412404EB10740A3C03F81140000180
:1040F00000254C00641C1D554C1CE1B29142E6DBCE
:1041000030BD000070B5044600250026094800882F
:104110000949098800FB01F60021084600F000FC6F
:1041200000F06AFC00BF02E0044804806D1CB54248
:10413000FAD370BD680000206A0000200020006CE7
:1041400070B505460E4614463146284600F05EF925
:104150000348008803490880881C048070BD000063
:104160006C000020FE1F006C2DE9F84F8146884648
:1041700016461C46CDF800800C2C01D10C2711E00E
:10418000102C01D110270DE0182C01D1242709E0B3
:10419000302C01D1902705E0402C01D1A70001E08F
:1041A000BDE8F88FA6F12000C6B2002564E00C2C13
:1041B00007D106EB4600324901EB800010F805A05C
:1041C00024E0102C05D12F4800EB061010F805A0B4
:1041D0001CE0182C07D106EBC6002B4901EB800030
:1041E00010F805A012E0302C07D106EBC6002749D5
:1041F00001EB001010F805A008E0402C05D1244880
:1042000000EB062010F805A000E0C9E74FF0000B16
:104210002DE00AF0800030B11E4802884146484631
:10422000FFF78EFF05E01C48028841464846FFF72D
:1042300087FF4FEA4A0A08F101001FFA80F8174881
:104240000088804500DBABE70098A8EB0000A042A7
:104250000BD1DDF8008009F101001FFA80F9104848
:104260000088814500DB9BE704E00BF1010BBBF10B
:10427000080FCED300BF6D1CBD4298D300BF8FE79F
:1042800054BF0008C8C30008B8C9000814D7000804
:10429000840C010860000020620000206A000020F9
:1042A000680000202DE9FF4F81B0074690461E466A
:1042B0000E9CC3464FF0000906E00A20BBFBF0FB52
:1042C00009F1010000F0FF09BBF1000FF5D1B14584
:1042D00008DD26A322463846029900F075F805B09D
:1042E000BDE8F08F00253CE0A6EB0900A8421BDDED
:1042F0000F9860B104EBD471491001FB057188B2CD
:104300002346302200940299FFF72EFF27E004EBAA
:10431000D471491001FB057188B223462022009414
:104320000299FFF721FF1AE0701B401EC1B20A205C
:10433000FCF74AFAB8FBF0F00A21B0FBF1F201FBFE
:10434000120A04EBD471491001FB057188B20AF11D
:104350003001CAB2234600940299FFF705FF681C9A
:10436000C5B2B542C0DB00BFB9E7000045525200FC
:104370002DE9FF4F82B004460D461646DDE911894E
:10438000109F0F48B0F800A00E48B0F800B00C48DD
:10439000A0F800800B48A0F800900F98CDE9000726
:1043A000324629462046059BFFF77CFF0448A0F8CB
:1043B00000A00448A0F800B006B0BDE8F08F0000EF
:1043C0006000002062000020F0B506460F4615464A
:1043D0001C4611E022782B4639463046FFF7C4FED2
:1043E000284605EBD07106EB61018EB206480088C5
:1043F000864200DB06E0641C2078202802DB20785F
:104400007E28E7DD00BFF0BD6800002030B504461F
:104410000D462946204600F083FA00F0EDFA0248E6
:1044200000880249088030BD600000200020006C38
:1044300000B587B0322004F0C7FF00BF0020019014
:10444000ED48006840F02000EB490860084600682D
:1044500000F02000019000BF00BF0815029001206D
:10446000039004900320059002A9E448FDF768F941
:10447000FFF716FEE24908800846008849F24131FC
:1044800088420DD001F000FBDD4908800846008815
:1044900045F26171884203D141F66310D849088022
:1044A000D748008849F2413188421CD1D54800687C
:1044B00020F00F004FF02041C1F81C010846D0F851
:1044C0001C0120F47060C1F81C010846D0F81C01E2
:1044D00040F00300C1F81C010846D0F81C0140F46C
:1044E0000070C1F81C01C648008849F24131884279
:1044F0007ED1CF20C44908800020891C0880C120BB
:10450000088030200880ED20891E08806420891CE6
:104510000880032008801220088081200880E8207D
:10452000891E08808520891C0880102008807A2038
:104530000880CB20891E08803920891C08802C2007
:104540000880002008803420088002200880F7209E
:10455000891E08802020891C0880EA20891E088086
:104560000020891C08800880C020891E08801B202C
:10457000891C0880C120891E08800120891C0880B0
:10458000C520891E08803020891C08800880C7202B
:10459000891E0880B720891C08803620891E088063
:1045A0004820891C08803A20891E08805520891CD3
:1045B0000880B120891E08800020891C08801A20EC
:1045C0000880B620891E08800A20891C0880A22045
:1045D0000880F220891E08800020891C088026207F
:1045E000891E08800120891C0880E020891E00E0C7
:1045F0005FE008800F20891C08802A20088028207E
:104600000880082008800E20088008200880542098
:104610000880A9200880432008800A2008800F20F5
:10462000088000200880088008800880E120891E1A
:1046300008800020891C0880152008801720088029
:104640000720088011200880062008802B20088081
:10465000562008803C200880052008801020088013
:104660000F2008803F20088008800F2008802B2022
:10467000891E08800020891C08800880012008808D
:104680003F2008802A20891E08800020891C08807D
:1046900008800880EF2008801120891E088078207B
:1046A00004F092FE292058490880012057490860EB
:1046B00098E05348008841F663118842F8D1E2201F
:1046C000514908801D20891C088002200880042090
:1046D0000880642004F084FEE0204B49088001201B
:1046E000891C08800A2004F06FFEE02046490880FB
:1046F0000320891C08800C2004F066FE012042493A
:1047000008800A2004F060FEE6203F4908802F2040
:10471000891C0880FF2008800880B020891E08803E
:104720002020891C0880002008800320088040F297
:104730001F3008800120088040F2DF100880002030
:104740000880B420891E08800420891C088040F25B
:104750001F400880002008802E200880002008804C
:10476000088008800880B620891E08800220891CE5
:1047700008804FF40370088000200880172008800C
:1047800015200880002008800880F020891E0880FD
:104790000320891C08802920891E0880D0200880D9
:1047A0000020891C0880BE20891E08800520891CE5
:1047B0000880FE20088001200880002008800880F2
:1047C0000880B820891E08800320891C08800120E9
:1047D0000880BA20891E08800120891C0880FF20DB
:1047E00001F0FEFA002001F013FA4FF6FF70FFF718
:1047F00089FC07B000BD00003038024000140240C0
:10480000640000201C0100A0FE1F006CA882424230
:104810002DE9FF4106460F46144698460A9D002C96
:104820000EDB40F2FF70002101224346CDE9005229
:10483000CDE90210224639463046FFF799FD0DE0DA
:104840004FF61F00002101224346CDE90052CDE979
:104850000210624239463046FFF78AFDBDE8FF810B
:1048600030B58418641EA2B2CC18641EA3B2264CC4
:1048700024786CBB254C248841F66315AC4227D1C3
:10488000234C2488A41A241AA0B2CC18641EA3B204
:10489000204C2488204D2C800412AD1C2C80C4B2E6
:1048A0002C808418641EC4F30F242C808418641E8A
:1048B000E4B22C80194C2488AD1E2C800C12AD1C47
:1048C0002C80CCB22C801C122C80DCB22C8019E005
:1048D000104C2488104D2C800412AD1C2C80C4B2C6
:1048E0002C8014122C80D4B22C800C4C2488AD1E49
:1048F0002C800C12AD1C2C80CCB22C801C122C8075
:10490000DCB22C8030BD0000660000206400002076
:10491000680000206E000020FE1F006C7000002068
:104920002E4A128849F241339A4212D12C4A1288F7
:104930002C4B1A8002129B1C1A80C2B21A802A4A7F
:1049400012889B1E1A800A129B1C1A80CAB21A80F7
:1049500042E0224A128841F663139A423CD1234A2C
:1049600012788AB9224A1288521E121A90B21C4A30
:1049700012881C4B1A8000229B1C1A801A8002127B
:104980001A80C2B21A8013E0154A1288154B1A8099
:1049900002129B1C1A80C2B21A80154A1288521E3B
:1049A000C2F30F221A80124A1278521ED2B21A8013
:1049B0000D4A12880B4B1A800A129B1C1A80CAB22D
:1049C0001A800C4A1288521EC2F30F221A80094A1A
:1049D0001278521ED2B21A80704700006400002084
:1049E0006E000020FE1F006C70000020660000209A
:1049F000680000206A000020024800880249088000
:104A0000704700006C000020FE1F006C024A1080FE
:104A1000921C118070470000FE1F006C10B50E48FC
:104A20000E4908600320486000210C488160C16085
:104A30004FF4202101614FF4801141610021017682
:104A400041768176C17601774177FCF73DFB08B16D
:104A5000FBF71CFF10BD0000006400409C0200201A
:104A600010B50E480E4908600320486000210C482C
:104A70008160C1604FF4202101614FF480114161D8
:104A80000021017641768176C17601774177FCF786
:104A90001BFB08B1FBF7FAFE10BD000000680040E8
:104AA000C402002010B5124A0121402004F090FFFA
:104AB00010490860104A0021104805F019F8104903
:104AC0000860104A0021104805F012F80F490860EC
:104AD0000F4A00210F4805F00BF80F4908600F4AF4
:104AE00000210F4805F004F80E49086010BD0000D1
:104AF0003CBF000810000020ACBE0008055E0008A6
:104B000000000020D0BE0008155E00080400002050
:104B1000F4BE0008295F00080800002018BF000844
:104B2000355F00080C00002000B58FB01C2108A8DC
:104B3000FBF7DEFC1C2101A8FBF7DAFC4FF020405C
:104B400020490860204848600620886000211D48F0
:104B5000C16001611021416100218161C161016277
:104B600041624FF4805181620021C1624FF4804163
:104B7000016300214163816341640F200890099023
:104B80003C200A9000200B9010200C9011200D90DA
:104B900000200E90092001900F2002900820039021
:104BA000002004901020059011200690002007900E
:104BB00001AA08A90348FEF759FA08B1FBF766FEF7
:104BC0000FB000BDEC020020040100A008B500BF3A
:104BD000002000903348006840F0800031490860B0
:104BE0000846006800F08000009000BF00BF00BFD2
:104BF000002000900846006840F001000860084668
:104C0000006800F00100009000BF00BF00BF00205E
:104C100000900846006840F01000086008460068F0
:104C200000F01000009000BF00BF00BF0020009007
:104C30000846006840F0020008600846006800F07E
:104C40000200009000BF00BF00BF00200090084697
:104C5000006840F0080008600846006800F008009E
:104C6000009000BF00BF00BF002000900846006811
:104C700040F0400008600846006800F040000090E6
:104C800000BF00BF00BF002000900846006840F051
:104C9000040008600846006800F00400009000BFAF
:104CA00000BF08BD3038024010B50A480A49086004
:104CB000532048600021084881604FF6FF71C160B1
:104CC000002101618161FEF761FA08B1FBF7DEFDA9
:104CD00010BD0000002000401404002000B58DB07D
:104CE000002009900A900B900C90079008901C21CE
:104CF0006846FBF7FDFB4FF080402D4908605320CC
:104D0000486000212A48816044F61F61C16000218B
:104D1000016180218161FEF739FA08B1FBF7B6FD28
:104D20004FF48050099009A92148FEF735FB08B1DE
:104D3000FBF7ACFD1E48FEF71EFD08B1FBF7A6FD14
:104D400000200790089007A91948FEF7C5F908B197
:104D5000FBF79CFD6020009040F2DC5001900020A9
:104D600002900490002269461148FEF782FC08B1C7
:104D7000FBF78CFD042269460D48FEF77AFC08B16A
:104D8000FBF784FD082269460948FEF772FC08B16A
:104D9000FBF77CFD0C2269460548FEF76AFC08B16A
:104DA000FBF774FD0248FEF735FC0DB000BD0000B6
:104DB0003C03002000B587B00020039004900590CC
:104DC00006900190029014481449086053204860EE
:104DD00000211248816040F2E731C1600021016189
:104DE0008161FEF7D3F908B1FBF750FD4FF4805015
:104DF000039003A90948FEF7CFFA08B1FBF746FD77
:104E000000200190029001A90448FEF765F908B15D
:104E1000FBF73CFD07B000BD000400408403002008
:104E200000B587B000200390049005900690019093
:104E30000290144814490860532048600021124829
:104E4000816040F2E731C160002101618161FEF7BC
:104E50009DF908B1FBF71AFD4FF48050039003A9A8
:104E60000948FEF799FA08B1FBF710FD0020019000
:104E7000029001A90448FEF72FF908B1FBF706FDDF
:104E800007B000BD00080040CC03002010B50B485F
:104E90000B4908604FF4E130486000210848816008
:104EA000C16001610C21416100218161C161FEF796
:104EB000B3FE08B1FBF7EAFC10BD0000004C004057
:104EC0005C04002010B50B480B4908604FF4E1303A
:104ED0004860002108488160C16001610C21416186
:104EE00000218161C161FEF797FE08B1FBF7CEFC9E
:104EF00010BD000000500040A404002010B50B4875
:104F00000B4908604FF4E130486000210848816097
:104F1000C16001610C21416100218161C161FEF725
:104F20007BFE08B1FBF7B2FC10BD00000010014091
:104F3000EC04002010B50B480B4908604FF4E13039
:104F40004860002108488160C16001610C21416115
:104F500000218161C161FEF75FFE08B1FBF796FC9D
:104F600010BD0000004800403405002010B50B487B
:104F70000B4908604FF4E130486000210848816027
:104F8000C16001610C21416100218161C161FEF7B5
:104F900043FE08B1FBF77AFC10BD0000001401408D
:104FA0007C05002010B500220D490E4802F05BFB85
:104FB00008B1FBF76BFC0C490A4802F096FE08B1F9
:104FC000FBF764FC0949074801F080FF08B1FBF7D3
:104FD0005DFC044802F08CFF08B1FBF757FC10BDE4
:104FE00018010020002200209C0100206801002000
:104FF00000BFFEE770B5002447E0474A02EB840299
:1050000092ED001AF0EE410A444A02EB840292ED5E
:10501000001AB0EE410A04EB4402414B03EBC2011B
:10502000404A1268224435235A433F4B03EB820027
:1050300000F0F0FA3D4800EB041080ED000A364A1B
:1050400002EB840292ED001AF0EE410A334A02EBC1
:10505000840292ED001AB0EE410A04EB4402344B94
:1050600003EBC20104F108022E4B1B681A443523DE
:105070005A432D4B03EB820000F0CCFA2D4800EB95
:10508000041080ED000A601CC4B2082CB5DB274D6B
:1050900095ED0C0ABDEEC00A10EE105A2BB2234D4E
:1050A00095ED080ABDEEC00A10EE105A2AB21F4D47
:1050B00095ED040ABDEEC00A10EE105A29B21B4D40
:1050C00095ED000ABDEEC00A10EE105A28B200F0AD
:1050D000F5FC184D95ED0C0ABDEEC00A10EE105A05
:1050E0002BB2144D95ED080ABDEEC00A10EE105A11
:1050F0002AB2104D95ED040ABDEEC00A10EE105A0A
:1051000029B20C4D95ED000ABDEEC00A10EE105A02
:1051100028B200F0FBFC70BDBC070020FC0700209B
:105120000C060020300000201C0800205C15002028
:10513000CC060020DC15002008B57E489FED7E0AD5
:105140007E4B7F4A002100907E4800F02FFC79487A
:105150009FED790A794B7A4A002100907948D43042
:1051600000F024FC73489FED740A744B744A0021CC
:105170000090754800F01AFC6E489FED6F0A6F4B67
:105180006F4A002100907048D43000F00FFC69484D
:105190009FED690A694B6A4A012100906B4800F053
:1051A00005FC64489FED640A644B654A0121009048
:1051B0006648D43000F0FAFB5E489FED5F0A5F4B13
:1051C0005F4A01210090624800F0F0FB59489FEDD2
:1051D0005A0A5A4B5A4A012100905D48D43000F0D7
:1051E000E5FB5C489FED540A5B4B5C4A0021009054
:1051F0005B4800F0DBFB57489FED4F0A564B574A80
:10520000002100905648D43000F0D0FB51489FED6B
:105210004A0A514B514A00210090524800F0C6FB07
:105220004C489FED450A4C4B4C4A002100904D489C
:10523000D43000F0BBFB47489FED3F0A464B474A3E
:1052400001210090484800F0B1FB42489FED3A0A26
:10525000414B424A012100904348D43000F0A6FB64
:105260003C489FED350A3C4B3C4A012100903F48A9
:1052700000F09CFB37489FED300A374B374A01213D
:1052800000903A48D43000F091FB00203849487033
:105290004AE09FED290A36484078364901EB001074
:1052A00080ED020A9FED240A3148407801EB00109E
:1052B00080ED010A9FED200A2D484078001D01EB8A
:1052C000001080ED020A9FED1C0A29484078001D5D
:1052D00001EB001080ED010A9FED170A2448407889
:1052E000254901EB001080ED020A9FED130A2048CA
:1052F000407801EB001080ED010A9FED0F0A1C4879
:105300004078001D01EB001080ED020A9FED0A0AB3
:1053100017484078001D01EB001080ED010A144889
:105320004078401C12494870114840780428B0DB8E
:1053300008BD0000C800002000000000C0000020E0
:10534000A40000201C080020C40900206C0B0020D1
:10535000140D00209C000020940000207800002004
:10536000BC0E0020641000200C120020B41300209A
:10537000750000205C150020DC15002010B50446E7
:1053800006492068884201D1FFF734FE2068B0F159
:10539000804F01D100F05EFE10BD0000000400400F
:1053A00000BFFEE710B50248FCF7ABFD10BD0000E2
:1053B000DC3600202DE9F04704460D4626683746C6
:1053C000D6F8408007F5306000EB4510D0F8089023
:1053D000104880450BD909F40040B0F5004F06D1C4
:1053E0004FF4004107F5306000EB45108160204626
:1053F000FDF742FA0748804508D9A079012805D170
:1054000004F29C420121206803F02AFA0020BDE842
:10541000F08700000A30544F2DE9F04705460C464E
:10542000D5F800904E46D9F840A006F5306000EB64
:105430004410D0F80880A879012855D108F0080058
:1054400008280FD1434882450BD908F40040B0F535
:10545000004F7BD14FF4004106F5306000EB441063
:10546000816073E008F02000202806D1202106F595
:10547000306000EB4410816068E008F028000028EC
:1054800064D1344882450CD908F40040B0F5004F8F
:1054900007D14FF4004106F5306000EB4410816005
:1054A00054E004EBC40105F5157000EB810706F527
:1054B000306000EB4410396A0069C0F31200081A2A
:1054C000786164B9386930B905F29C4201212868D5
:1054D00003F0C6F903E07969F8680844F860E1B2BE
:1054E0002846FCF785FB31E01B4882451BD108F4B8
:1054F0000040B0F5004F07D14FF4004106F5306091
:1055000000EB4410816021E008F02000202805D144
:10551000202106F5306000EB44108160E1B228469E
:10552000FCF766FB12E06CB904EBC40105F51570DD
:1055300000EB8100006928B905F29C42002128682F
:1055400003F08EF9E1B22846FCF752FB0020BDE8DB
:10555000F08700000A30544F0A31544F2DE9F84FBC
:1055600007460E46D7F80090C84606EBC60107F17D
:10557000140000EB8104D4E90410884202D9012010
:10558000BDE8F88FD4E90401451AA068A84200D20A
:10559000A568E81C4FEA900A17E0D4E90401451A0F
:1055A000A068A84200D2A568E81C4FEA900AB87922
:1055B000ABB2F2B200904846E16803F019FEE06831
:1055C0002844E06060692844606108F5106000EBE1
:1055D0004610806980B2504506D3D4E90410884251
:1055E00002D220690028D8D1D4E9040188420ED81B
:1055F00006F00F01012000FA01FB40F6340050F8DC
:10560000080020EA0B0040F6340141F808000020B1
:10561000B6E7000070B52DED088B04460D46B0EEE0
:10562000408AF0EE608A207801287DD184ED158AC9
:1056300094ED220A84ED230A94ED210A84ED220AD6
:10564000C4ED188A95ED050A84ED190A94ED180A3F
:10565000D4ED190A30EE600A84ED210A94ED170AA0
:1056600010EE101A084606F0ABFB41EC190B94ED56
:10567000210A10EE101A084606F0A2FB41EC1B0BA3
:10568000B0EE4B0AF0EE6B0A03F005FEB0EE40AA56
:10569000F0EE60AA53EC192B51EC1A0B06F000FB4C
:1056A00004D29FEDC00ABDEC088B70BD94ED120AC8
:1056B000D4ED210A20EE200A84ED1B0A94ED1B0A8A
:1056C000D4ED150AB4EEE00AF1EE10FA04DD94ED23
:1056D000150A84ED1B0A10E094ED1B0AD4ED150A9F
:1056E000F1EE600AB4EEE00AF1EE10FA05D294EDA4
:1056F000150AB1EE400A84ED1B0A94ED1C0AD4EDA4
:10570000130A94ED211A00EE810A84ED1C0A94ED2F
:10571000210AD4ED220A30EE600AD4ED140A20EEFC
:10572000200A84ED1D0A00E0B3E094ED1D0AD4EDDB
:10573000160AB4EEE00AF1EE10FA04DD94ED160A52
:1057400084ED1D0A10E094ED1D0AD4ED160AF1EE69
:10575000600AB4EEE00AF1EE10FA05D294ED160AF2
:10576000B1EE400A84ED1D0A94ED1B0AD4ED1C0A2B
:1057700030EE200AD4ED1D0A30EE200A84ED1A0A1C
:1057800094ED100A84ED110A94ED0F0A84ED100ACD
:1057900094ED1A0A84ED060AB5F9000000EE100A2D
:1057A000B8EEC00ADFED800A80EE201A84ED071AF9
:1057B00094ED060AD4ED070A30EE600A84ED0F0A74
:1057C00094ED010AD4ED0F0A20EE200A84ED090AB7
:1057D00094ED0A0AD4ED020A94ED0F1A00EE810A44
:1057E00084ED0A0A94ED0F0AD4ED100A30EE600A37
:1057F000D4ED030A20EE200A84ED0B0A94ED0A0A88
:10580000D4ED050AB4EEE00AF1EE10FA04DD94EDF1
:10581000050A84ED0A0A10E094ED0A0AD4ED050A9F
:10582000F1EE600AB4EEE00AF1EE10FA05D294ED62
:10583000050AB1EE400A84ED0A0A94ED090AD4ED96
:105840000A0A30EE200AD4ED0B0A30EE200A84ED6D
:10585000080A94ED080AD4ED040AB4EEE00AF1EE69
:1058600010FA04DD94ED040A84ED080A97E094ED43
:10587000080AD4ED040AF1EE600AB4EEE00AF1EE93
:1058800010FA05D294ED040AB1EE400A84ED080A3C
:1058900085E094ED100A84ED110A94ED0F0A84ED71
:1058A000100A84ED068AB5F9000000EE100AB8EE81
:1058B000C00ADFED3D0A80EE201A84ED071A94ED50
:1058C000060AD4ED070A30EE600A84ED0F0A94ED63
:1058D000010AD4ED0F0A20EE200A84ED090A94EDA6
:1058E0000A0AD4ED020A94ED0F1A00EE810A84ED43
:1058F0000A0A94ED0F0AD4ED100A30EE600AD4EDD6
:10590000030A20EE200A84ED0B0A94ED0A0AD4ED76
:10591000050AB4EEE00AF1EE10FA04DD94ED050A92
:1059200084ED0A0A10E094ED0A0AD4ED050AF1EEBE
:10593000600AB4EEE00AF1EE10FA05D294ED050A21
:10594000B1EE400A84ED0A0A94ED090AD4ED0A0A80
:1059500030EE200AD4ED0B0A30EE200A84ED080A5E
:1059600094ED080AD4ED040AB4EEE00AF1EE10FA60
:1059700004DD94ED040A84ED080A10E094ED080AB1
:10598000D4ED040AF1EE600AB4EEE00AF1EE10FA8A
:1059900005D294ED040AB1EE400A84ED080A94EDB4
:1059A000080A80E6000000000000704230B5039C49
:1059B0000170D2ED000AC0ED010AD2ED010AC0ED7E
:1059C000020AD2ED020AC0ED030AD3ED000AC0EDCF
:1059D000040AD4ED000AC0ED050ADFED2A0AC0ED85
:1059E0000E0AC0ED0D0AC0ED0C0ADFED260AC0ED6F
:1059F000080AC0ED0B0AC0ED0A0AC0ED090AC0EDA5
:105A0000110AC0ED100AC0ED0F0AD2ED030AC0ED75
:105A1000120AD2ED040AC0ED130AD2ED050AC0ED58
:105A2000140AD3ED010AC0ED150AD4ED010AC0ED48
:105A3000160A80ED170ADFED130AC0ED200AC0ED4B
:105A40001F0AC0ED1E0ADFED0F0AC0ED1A0AC0EDF5
:105A50001D0AC0ED1C0AC0ED1B0AC0ED230AC0EDF3
:105A6000220AC0ED210AD2ED060AC0ED240ADFEDBC
:105A7000050AC0ED340AC0ED330AC0ED320AC0EDAC
:105A80002C0A30BD00000000A121064A1180911CA3
:105A9000088808884FF6FF7101EA0020911C0988E8
:105AA00008437047FE1F006C30B501460A46137864
:105AB000521C147843EA042030BD0000F8B50746B4
:105AC0000C4615461E4640F2FF100D4908600020A6
:105AD0008860C86008200861380A0A4908704F7059
